{
  "contractName": "Coursetro",
  "abi": [
    {
      "inputs": [],
      "payable": false,
      "stateMutability": "nonpayable",
      "type": "constructor"
    },
    {
      "constant": false,
      "inputs": [
        {
          "name": "_fName",
          "type": "string"
        },
        {
          "name": "_age",
          "type": "uint256"
        }
      ],
      "name": "setInstructor",
      "outputs": [],
      "payable": false,
      "stateMutability": "nonpayable",
      "type": "function"
    },
    {
      "constant": true,
      "inputs": [],
      "name": "getInstructor",
      "outputs": [
        {
          "name": "",
          "type": "string"
        },
        {
          "name": "",
          "type": "uint256"
        }
      ],
      "payable": false,
      "stateMutability": "view",
      "type": "function"
    }
  ],
  "bytecode": "0x608060405234801561001057600080fd5b506040805190810160405280600681526020017f76656761326b00000000000000000000000000000000000000000000000000008152506000908051906020019061005c92919061006a565b50600a60018190555061010f565b828054600181600116156101000203166002900490600052602060002090601f016020900481019282601f106100ab57805160ff19168380011785556100d9565b828001600101855582156100d9579182015b828111156100d85782518255916020019190600101906100bd565b5b5090506100e691906100ea565b5090565b61010c91905b808211156101085760008160009055506001016100f0565b5090565b90565b6102fa8061011e6000396000f30060806040526004361061004c576000357c0100000000000000000000000000000000000000000000000000000000900463ffffffff16806322faf03a146100515780633c1b81a5146100c4575b600080fd5b34801561005d57600080fd5b506100c2600480360381019080803590602001908201803590602001908080601f01602080910402602001604051908101604052809392919081815260200183838082843782019150505050505091929192908035906020019092919050505061015b565b005b3480156100d057600080fd5b506100d961017d565b6040518080602001838152602001828103825284818151815260200191508051906020019080838360005b8381101561011f578082015181840152602081019050610104565b50505050905090810190601f16801561014c5780820380516001836020036101000a031916815260200191505b50935050505060405180910390f35b8160009080519060200190610171929190610229565b50806001819055505050565b6060600080600154818054600181600116156101000203166002900480601f01602080910402602001604051908101604052809291908181526020018280546001816001161561010002031660029004801561021a5780601f106101ef5761010080835404028352916020019161021a565b820191906000526020600020905b8154815290600101906020018083116101fd57829003601f168201915b50505050509150915091509091565b828054600181600116156101000203166002900490600052602060002090601f016020900481019282601f1061026a57805160ff1916838001178555610298565b82800160010185558215610298579182015b8281111561029757825182559160200191906001019061027c565b5b5090506102a591906102a9565b5090565b6102cb91905b808211156102c75760008160009055506001016102af565b5090565b905600a165627a7a723058207902f2df5cbee7253263e2edca288d99a66f3ff2d46c2092b7b5cbaa61d032d80029",
  "source": "pragma solidity >=0.4.21 <0.6.0;\r\n\r\ncontract Coursetro {\r\n    \r\n   string fName;\r\n   uint age;\r\n   \r\n   constructor() public {\r\n       fName = 'vega2k';\r\n       age = 10;\r\n   }\r\n\r\n   function setInstructor(string _fName, uint _age) public {\r\n       fName = _fName;\r\n       age = _age;\r\n   }\r\n   \r\n   function getInstructor() public view returns (string, uint) {\r\n       return (fName, age);\r\n   }\r\n    \r\n}",
  "sourcePath": "C:\\blockchain\\truffle\\contracts\\Coursetro .sol",
  "compiler": {
    "name": "solc",
    "version": "0.4.25+commit.59dbf8f1.Emscripten.clang"
  },
  "schemaVersion": "2.0.2",
  "updatedAt": "2019-03-23T06:10:15.046Z"
}