{
  "contractName": "MyContract",
  "abi": [
    {
      "constant": false,
      "inputs": [],
      "name": "learnMapping",
      "outputs": [
        {
          "name": "",
          "type": "uint256"
        }
      ],
      "payable": false,
      "stateMutability": "nonpayable",
      "type": "function"
    },
    {
      "constant": false,
      "inputs": [
        {
          "name": "_studentId",
          "type": "uint256"
        },
        {
          "name": "_name",
          "type": "string"
        },
        {
          "name": "_gender",
          "type": "string"
        },
        {
          "name": "_age",
          "type": "uint256"
        }
      ],
      "name": "setStudentInfo",
      "outputs": [],
      "payable": false,
      "stateMutability": "nonpayable",
      "type": "function"
    },
    {
      "constant": true,
      "inputs": [
        {
          "name": "_studentId",
          "type": "uint256"
        }
      ],
      "name": "getStudentInfo",
      "outputs": [
        {
          "name": "",
          "type": "string"
        },
        {
          "name": "",
          "type": "string"
        },
        {
          "name": "",
          "type": "uint256"
        }
      ],
      "payable": false,
      "stateMutability": "view",
      "type": "function"
    }
  ],
  "bytecode": "0x608060405234801561001057600080fd5b506105f6806100206000396000f300608060405260043610610057576000357c0100000000000000000000000000000000000000000000000000000000900463ffffffff168063273c850b1461005c57806365a81d7d14610087578063e1962c3b146101a0575b600080fd5b34801561006857600080fd5b50610071610263565b6040518082815260200191505060405180910390f35b34801561009357600080fd5b506100b26004803603810190808035906020019092919050505061033f565b604051808060200180602001848152602001838103835286818151815260200191508051906020019080838360005b838110156100fc5780820151818401526020810190506100e1565b50505050905090810190601f1680156101295780820380516001836020036101000a031916815260200191505b50838103825285818151815260200191508051906020019080838360005b83811015610162578082015181840152602081019050610147565b50505050905090810190601f16801561018f5780820380516001836020036101000a031916815260200191505b509550505050505060405180910390f35b3480156101ac57600080fd5b5061026160048036038101908080359060200190929190803590602001908201803590602001908080601f0160208091040260200160405190810160405280939291908181526020018383808284378201915050505050509192919290803590602001908201803590602001908080601f0160208091040260200160405190810160405280939291908181526020018383808284378201915050505050509192919290803590602001909291905050506104cc565b005b60008060646000803373ffffffffffffffffffffffffffffffffffffffff1673ffffffffffffffffffffffffffffffffffffffff1681526020019081526020016000208190555060646000803373ffffffffffffffffffffffffffffffffffffffff1673ffffffffffffffffffffffffffffffffffffffff168152602001908152602001600020600082825401925050819055506000803373ffffffffffffffffffffffffffffffffffffffff1673ffffffffffffffffffffffffffffffffffffffff1681526020019081526020016000205490508091505090565b606080600060016000858152602001908152602001600020600001600160008681526020019081526020016000206001016001600087815260200190815260200160002060020154828054600181600116156101000203166002900480601f01602080910402602001604051908101604052809291908181526020018280546001816001161561010002031660029004801561041c5780601f106103f15761010080835404028352916020019161041c565b820191906000526020600020905b8154815290600101906020018083116103ff57829003601f168201915b50505050509250818054600181600116156101000203166002900480601f0160208091040260200160405190810160405280929190818152602001828054600181600116156101000203166002900480156104b85780601f1061048d576101008083540402835291602001916104b8565b820191906000526020600020905b81548152906001019060200180831161049b57829003601f168201915b505050505091509250925092509193909250565b6000600160008681526020019081526020016000209050838160000190805190602001906104fb929190610525565b5082816001019080519060200190610514929190610525565b508181600201819055505050505050565b828054600181600116156101000203166002900490600052602060002090601f016020900481019282601f1061056657805160ff1916838001178555610594565b82800160010185558215610594579182015b82811115610593578251825591602001919060010190610578565b5b5090506105a191906105a5565b5090565b6105c791905b808211156105c35760008160009055506001016105ab565b5090565b905600a165627a7a72305820f6743f13eafc5046869b87761e060df49a2cb8efb653a20a3935eea75078c7ee0029",
  "source": "pragma solidity >=0.4.21 <0.6.0;\r\n\r\ncontract MyContract {\r\n    mapping(address => uint256) balance;\r\n\r\n    struct Student {\r\n        string studentName;\r\n        string gender;\r\n        uint age;\r\n        \r\n    }\r\n    mapping(uint256 => Student) studentInfo;\r\n\r\n    function learnMapping() public returns(uint256) {\r\n        balance[msg.sender] = 100;\r\n        balance[msg.sender] += 100;\r\n\r\n        uint256 currentBalance = balance[msg.sender];\r\n        return currentBalance;\r\n    }\r\n\r\n    function setStudentInfo(uint _studentId, string _name, string _gender, uint _age) public {\r\n        Student storage student = studentInfo[_studentId];  //키값으로 특정 Student 구조체를 불러온다.\r\n\r\n        //구조체 각각 필드에 아규먼트로 받은 값들을 대입\r\n        student.studentName = _name;\r\n        student.gender = _gender;\r\n        student.age = _age;\r\n    }\r\n\r\n    function getStudentInfo(uint256 _studentId) view public returns(string,string,uint) {\r\n        return (studentInfo[_studentId].studentName, studentInfo[_studentId].gender, studentInfo[_studentId].age);\r\n    }\r\n\r\n}",
  "sourcePath": "C:\\blockchain\\truffle\\contracts\\MyContract.sol",
  "compiler": {
    "name": "solc",
    "version": "0.4.25+commit.59dbf8f1.Emscripten.clang"
  },
  "schemaVersion": "2.0.2",
  "updatedAt": "2019-03-23T06:10:15.050Z"
}